:100000000C308A00EA2C0000FF00030E8301A100DF
:100010000A08A0008A010408A2007708A300780853
:10002000A4007908A5007A08A600831383128B1D0B
:100030001B280B182C28220884002308F70024080A
:10004000F8002508F9002608FA0020088A00210E89
:100050008300FF0E7F0E09008A110A122F28061A4C
:100060003428530B3428DA01861A3928540B3928DE
:10007000DB01061B3E28550B3E28DC010B108A11C4
:100080000A121B286537E337E432F218BA12E40685
:100090000A006537E337E4327219BA12E4060A003F
:1000A000EB30F030EE36611D25320D050000EB30EF
:1000B000F030EE36611D25320D050001EB30F030D9
:1000C000EE36611D25320D050000E8346734D43466
:1000D000ED32BA12E6060A00EC37772AE936651DDA
:1000E00025330D0500006B080739F7006B0CF8008D
:1000F000F80CF80C1F30F80578086D07840083139E
:100100006E188317F801F80AF70A8728F80DF70B1D
:100110008628EC0803198F28780880049228F809AB
:100120007808800508006B080739F7006B0CF800A9
:10013000F80CF80C1F30F80578086C07840083135E
:100140006D1883170008F800F70AA728F80CF70BBA
:10015000A62808006708EB000130EC00EE018030B3
:10016000ED0073206708EB00ED01EC019320781C93
:10017000BC280130B800CB286708EB000130EC0048
:10018000EE018030ED0073206708EB00ED01EC011B
:100190009320781CB8016808EB000130EC00EE01F8
:1001A0008030ED0073206808EB00ED01EC01932036
:1001B000781CDD280230B900EC286808EB0001301B
:1001C000EC00EE018030ED0073206808EB00ED01DB
:1001D000EC019320781CB9016908EB000130EC00B8
:1001E000EE018030ED0073206908EB00ED01EC01B9
:1001F0009320781CFE280430BA000D296908EB0012
:100200000130EC00EE018030ED0073206908EB0056
:10021000ED01EC019320781CBA016A08EB00013073
:10022000EC00EE018030ED0073206A08EB00ED0178
:10023000EC019320781C1F290830BB002E296A0886
:10024000EB000130EC00EE018030ED0073206A0815
:10025000EB00ED01EC019320781CBB013908380755
:100260003A073B07F80008000B08E8008B138316D9
:1002700003178C170C140000000003186729831261
:100280000C087F390313E90003170D080313EA0074
:1002900003170F080313EB0069080C1E4D29990082
:1002A0006A0803178D0003136B0803178F0083166A
:1002B0008C170C140000000083120313E70B612954
:1002C0006429831603176729872983160317831266
:1002D0000C0D0E0D7F390313E90003170D080313EE
:1002E000EA0003170F080313EB0069080C1E7629B8
:1002F00099006A0803178D0003136B0803178F001A
:100300008D0A03198F0A03100313E70B3729E81B23
:100310008B1708006E08F8016D02031892296D080A
:10032000F7009E29F7010830EF00ED0DF70D6E087C
:1003300077020318F700F80DEF0B9529080020301D
:10034000681E3030E9006708F700E71FAF29F7099A
:10035000F70A7708E7002D30E900E8176814670806
:10036000ED006430EE008A217708E700303078072E
:10037000EA006708ED000A30EE008A213030770786
:10038000EC0030307807EB006908F70030306A0283
:100390000319CE29E814E81B6815E2296908EA0068
:1003A0002030E90030306B020319DA296814E81BA9
:1003B000E814E229031D6814031DE2296A08EB0012
:1003C0002030EA006819E929E818ED296818F129B0
:1003D000F52969080C1EEA2999006A080C1EEE2905
:1003E00099006B080C1EF22999006C080C1EF62966
:1003F000990008008E30F7006808F8006708F900D7
:10040000FA01F808031D0E2A7908F800F9010830EE
:10041000F702F808031D0E2AF701162A0310F81B2D
:10042000152AF90DF80DF7030E2AF813080080308D
:10043000831C1D2A8316AD0683128316B201B301F5
:100440002908B1002D08B106280803190B2BB000AC
:10045000F7002C080319142BB0020319B02A031C4F
:100460006E2A2D08B600B6172E08B5002F08B40066
:10047000B3010310B60CB50CB40CB30CB00B382A96
:10048000B11F452A3214282B321030103216AB30EF
:10049000840083133D2B3212B11B582A301C632A6F
:1004A000B60CB50CB40CB30CF70A0319232B632A52
:1004B000B61B662A0310B30DB40DB50DB60DF703C8
:1004C0000319232B582A3217D02A32132908B100D6
:1004D000B11F6C2AB6171C2BB6131C2B2C08B000AE
:1004E000F7002808B0022908B600B6172A08B50098
:1004F0002B08B400B3010310B60CB50CB40CB30C4C
:10050000B00B7A2AB11F872AB214282BB2103010F0
:10051000B216AF30840083133D2BB212B11B9A2A5E
:10052000301CA52AB60CB50CB40CB30CF70A031991
:10053000232BA52AB61BA82A0310B30DB40DB50DA5
:10054000B60DF7030319232B9A2AB217D02AB21338
:100550002D08B100B11FAE2AB6171C2BB6131C2BE9
:100560002D08B600B6172E08B5002F08B400B11F2D
:10057000BD2AB6133215282B3211B3013010AB301F
:10058000840083133D2BB11BE62A2908B100301CDF
:10059000D02AB60CB50CB40CB30CF70A0319232BF4
:1005A000B31FE12AB40A031DE12AB50A031DE12A9B
:1005B000B60A031DE12AB60CB50CB40CF70A0319F0
:1005C000232B321B652AB21BA72A052B8030B606C7
:1005D000B61FEE2A282B2D08B100FB2A2908B100EE
:1005E000B608031DFB2AB508031DFB2AB408031D2A
:1005F000FB2AF7011C2BB61B052B0310B30DB40D02
:10060000B50DB60DF70BFB2A232BB11F092BB6171F
:100610001C2BB6131C2B2C08F7002D08B6002E0837
:10062000B5002F08B4001C2B2808F7002908B600D5
:100630002A08B5002B08B4003608F8003508F90080
:100640003408FA005B2BF701F801F901FA015B2B82
:10065000B301B409B509B609B309B30A031D362BB2
:10066000B40A031D362BB50A0319B60A3218442AF8
:10067000B218862A3219BC2AEB2A0008B407031CD8
:10068000472BB50A031D472BB60A03193014840300
:100690000008B507031C4F2BB60A03193014840356
:1006A0000008801F803AB60703183014321A4B2A0C
:1006B000B21A8D2AC32A8312080083162808031948
:1006C000CE2BB0002C080319CE2BB00703186F2BCC
:1006D0007F30B002031CCE2B0319CE2B732B81303D
:1006E000B0070318CE2B3008F700F801F901FA0122
:1006F0002908B400B4172A08B3002B08B200183038
:10070000B000B101321C9C2B2F08FA07031C8E2B62
:10071000F90A031D8E2BF80A0319B1172E08F907E1
:10072000031C952BF80A0319B1172D08AA00AA1764
:100730002A08F8070318B117B10DF80CF90CFA0CD8
:10074000B40CB30CB20C0310B00B812B0130F707C3
:100750000318CE2BF81BB32BB40DFA0DF90DF80DC1
:10076000F7030319CE2BB41FC42BFA0A031DC42BA5
:10077000F90A031DC42BF80A031DC42BF80CF90C4D
:10078000FA0CF70A0319CE2B2908B1002D08B1067F
:10079000B11FCC2BF817D22BF813D22BF701F8018D
:1007A000F901FA01831208008316280803199A2C0C
:1007B000B4002C0803199A2CB402031CE42B7F30DC
:1007C000B40703189A2CEA2B8130B402031C9A2C2C
:1007D00003199A2C3408F700F801F901FA01B30162
:1007E0002908B200B2172A08B1002B08B00019304E
:1007F000B4002F08B00203180D2C0130B102031809
:100800000D2CB20203180D2CB30203180D2CB30AE1
:10081000B20AB10A2F08B0073F2C2E08B102031804
:10082000282C0130B2020318282CB3020318282CFC
:10083000B30AB20A2E08B1072F08B007031C3F2CD9
:10084000B10A031D3F2CB20A031D3F2CB30A3F2CF3
:100850002D088038B20203183E2C0130B302031871
:100860003E2CB30A2D088038B2072E08B107031CAE
:100870001C2CB20A031D1C2CB30A1C2C7A14B40BBA
:10088000422C4D2C0310B00DB10DB20DB30D031061
:10089000FA0DF90DF80DB50DF92B351C552C03107B
:1008A000F80CF90CFA0CB50C582CF70303199A2C18
:1008B000B51B812C0310B00DB10DB20DB30D2F0877
:1008C000B00203186D2C0130B10203186D2CB20276
:1008D00003186D2CB302031C902C2E08B1020318D0
:1008E000782C0130B2020318782CB302031C902C30
:1008F0002D088038B2020318812C0130B302031C8A
:10090000902CFA0A031D902CF90A031D902CF80A6A
:10091000031D902CF70A03199A2CF80CF90CFA0C09
:100920002908B4002D08B406B41F982CF8179E2C83
:10093000F8139E2CF701F801F901FA01831208005F
:1009400083146E088316AB0083126D088316AA0009
:1009500083126C088316A90083126B088316A80003
:100960007208AF007108AE007008AD0083126F0806
:100970008316AC00831217227A088316A700790821
:10098000A6007808A5007708A40083142308AB000C
:100990002208AA002108A9002008A8007E08AF00AC
:1009A0007D08AE007C08AD007B08AC0083121722E6
:1009B00083162708AB002608AA002508A9002408EA
:1009C000A8007A08AF007908AE007808AD00770873
:1009D000AC0083125D237A088316A7007908A6006D
:1009E0007808A5007708A40083147608AB00750882
:1009F000AA007408A9007308A8007208AF00710863
:100A0000AE007008AD0083126F088316AC0083122D
:100A1000172283162708AB002608AA002508A9007C
:100A20002408A8007A08AF007908AE007808AD0065
:100A30007708AC008312D4237A088316A7007908BC
:100A4000A6007808A5007708A40083102708AB004B
:100A50002608AA002508A9002408A8007E08AF00DF
:100A60007D08AE007C08AD007B08AC008312172225
:100A700008003030E7003130E8003230E900333030
:100A8000EA00AA207808C000423003178D00003029
:100A90008F00031009300313E70034214008E700FA
:100AA0001830E8009F210D300C1E542D99000A309B
:100AB0000C1E582D99003830E7003930E8003A30E4
:100AC000E9003B30EA00AA207808C100493003174A
:100AD0008D0000308F00031009300313E70034212C
:100AE0004108E7001830E8009F210D300C1E762DDC
:100AF00099000A300C1E7A2D99004008063C031C10
:100B0000862F4008F93E0318852F073E972FBF0117
:100B1000BE012030BD008330BC00852FE8014108B4
:100B2000E700FA217A08EA007908E9007808E80085
:100B30007708E7007A08EE007908ED007808EC0005
:100B40007708EB00F201F101F001EF01F601F50188
:100B50007030F4008230F300FE01FD01FC018030B2
:100B6000FB008316A301A201A1018130A000831222
:100B7000A0247A08BF007908BE007808BD00770875
:100B8000BC003F088316AB0083123E088316AA0000
:100B900083123D088316A90083123C088316A8001F
:100BA000AF01AE012030AD008230AC0083125D2376
:100BB0007A08BF007908BE007808BD007708BC003D
:100BC000852FE8014108E700FA217A08EA00790850
:100BD000E9007808E8007708E7007A08EE0079086D
:100BE000ED007808EC007708EB00F201F101F0016C
:100BF000EF01F601F5017030F4008230F300FE01E0
:100C0000FD01FC018130FB008316A301A2014030ED
:100C1000A1008130A0008312A0247A08BF007908C7
:100C2000BE007808BD007708BC003F088316AB0003
:100C300083123E088316AA0083123D088316A9007A
:100C400083123C088316A800AF01AE012030AD002E
:100C50008230AC0083125D237A08BF007908BE00A1
:100C60007808BD007708BC00852FE8014108E7003F
:100C7000FA217A08EA007908E9007808E80077089C
:100C8000E7007A08EE007908ED007808EC007708B4
:100C9000EB00F201F101F001EF01F601F501703016
:100CA000F4008230F300FE01FD014030FC00813091
:100CB000FB008316A301A201A1018230A0008312D0
:100CC000A0247A08BF007908BE007808BD00770824
:100CD000BC003F088316AB0083123E088316AA00AF
:100CE00083123D088316A90083123C088316A800CE
:100CF000AF01AE012030AD008230AC0083125D2325
:100D00007A08BF007908BE007808BD007708BC00EB
:100D1000852FE8014108E700FA217A08EA007908FE
:100D2000E9007808E8007708E7007A08EE0079081B
:100D3000ED007808EC007708EB00F201F101F0011A
:100D4000EF01F601F5017030F4008230F300FE018E
:100D5000FD01FC01FB008316A301A2012030A100CC
:100D60008230A0008312A0247A08BF007908BE0058
:100D70007808BD007708BC003F088316AB008312DB
:100D80003E088316AA0083123D088316A900831229
:100D90003C088316A800AF01AE012030AD008230C0
:100DA000AC0083125D237A08BF007908BE00780882
:100DB000BD007708BC00852FE8014108E700FA2153
:100DC0007A08EA007908E9007808E8007708E7007F
:100DD0007A08EE007908ED007808EC007708EB005F
:100DE000F201F101F001EF01F601F5017030F400BC
:100DF0008230F300FE01FD012030FC008230FB0058
:100E00008316A301A2015030A1008230A0008312FA
:100E1000A0247A08BF007908BE007808BD007708D2
:100E2000BC003F088316AB0083123E088316AA005D
:100E300083123D088316A90083123C088316A8007C
:100E4000AF01AE012030AD008230AC0083125D23D3
:100E50007A08BF007908BE007808BD007708BC009A
:100E6000852FE8014108E700FA217A08EA007908AD
:100E7000E9007808E8007708E7007A08EE007908CA
:100E8000ED007808EC007708EB00F201F101F001C9
:100E9000EF01F601F5017030F4008230F300FE013D
:100EA000FD015030FC008230FB008316A301A2013B
:100EB0000830A1008330A0008312A0247A08BF006C
:100EC0007908BE007808BD007708BC003F0883168B
:100ED000AB0083123E088316AA0083123D088316D6
:100EE000A90083123C088316A800AF01AE01203090
:100EF000AD008230AC0083125D237A08BF00790810
:100F0000BE007808BD007708BC008C2FBF01BE0171
:100F10002030BD008330BC003C08F7003D08F800DD
:100F20003E08F9003F08FA008A150A12252D0A1416
:100F30008A140A158207872D8E2DE12D352E892ED4
:100F4000DC2E312F8318A72FA43084008313F701E0
:100F5000F801F901FA018316A401A501A601A70170
:100F600023082204210420040319E62F2030A800BE
:100F70000310FB0DFC0DFD0DFE0DA40DA50DA60D22
:100F8000A70D23082702031DCF2F22082602031DC9
:100F9000CF2F21082502031DCF2F20082402031C78
:100FA000E02F2008A4022108031C210FA50222081B
:100FB000031C220FA6022308031C230FA7020314FD
:100FC000F70DF80DF90DFA0DA80BB82F24088000C5
:100FD000840A25088000840A26088000840A2708DD
:060FE000800083120800EE
:101000000408EC006B08EE00031929286A0883160F
:10101000AB00831269088316AA008312680883163E
:10102000A900831267088316A800AF01AE01203023
:10103000AD008230AC008A1183125D238A157A08D4
:10104000EA007908E9007808E8007708E700EE0B85
:1010500006286A08FE006908FD006808FC006708A9
:10106000FB007B08B63CFB00FA017C08F400FC178F
:101070000310FC0CFD0CFE0CFA0CF90CF80CF70C30
:10108000FB0B3828F41F4F28F709F809F909FA096A
:10109000F70A0319F80A0319F90A0319FA0A7A0870
:1010A000EA007908E9007808E8007708E700EA1F15
:1010B0006628EC03EC16E709E809E909EA09E70AFA
:1010C0000319E80A0319E90A0319EA0A3B30F30095
:1010D0009A30F200CA30F100F0010A30EE006B08DD
:1010E0000319EC0A83146730840083136A08FE0036
:1010F0006908FD006808FC006708FB007308831698
:10110000A3007208A2007108A1007008A0008A1153
:101110008312A2278A157808F708031DA2286B0AF4
:101120006E020319A2286C080319A4280F396E0255
:1011300003199C280318D828EC1BD8286C1BA4285A
:101140002030D3282030EC05EC1EB328EC126B08BD
:10115000031DEC037708EC002D300C1EAD28990020
:101160006C08F700EC016B086E02031DC2287708BB
:10117000EC002E300C1EBA2899006C08F7002030C5
:10118000EC0500303030EC1ED328EC126B08031D48
:10119000EC037708EC002D300C1ECC2899006C086D
:1011A000F700EC013030F70777080C1ED5289900BE
:1011B00083107308FE007208FD007108FC007008BF
:1011C000FB008316A301A201A1010A30A0008A112D
:1011D0008312A2278A157A08F3007908F2007808AA
:1011E000F1007708F000EE0B722808006808EF00A5
:1011F0006C08EF06EF1F012903110310E81B03140D
:1012000034296808EF006B08F0006708F002031942
:101210000F29EF1F34290308013A830034296C0891
:10122000F0006808F00203191B29EF1F3429030896
:10123000013A830034296D08F0006908F0020319AF
:101240002729EF1F34290308013A830034296E0847
:10125000F0006A08F00203193329EF1F342903084C
:10126000013A83003429031008008E30F700690822
:10127000F7026A08F9006B08F800F917F708031974
:101280004C290310F908031D4829F80803194C29B3
:10129000F90CF80CF70B4129EA1F5329F809F90951
:1012A000F80A0319F90A080045088316AB008312EF
:1012B00044088316AA00831243088316A9008312E8
:1012C00042088316A800AF01AE01AD018030AC002A
:1012D0008A1183125D238A157A08D9007908D8000B
:1012E0007808D7007708D60059088316AB00831218
:1012F00058088316AA00831257088316A900831280
:1013000056088316A800AF01AE012030AD00823030
:10131000AC008A118312D4238A157A08D90079087F
:10132000D8007808D7007708D600EA01E901203014
:10133000E8008230E7005908EE005808ED00570831
:10134000EC005608EB00F620031CC4290130DD0038
:10135000503003178D0000308F0003100830031346
:10136000E7008A1134218A155D08E7001830E8008B
:101370008A119F218A150D300C1EBC2999000A3054
:101380000C1EC0299900322B5908EA005808E900C0
:101390005708E8005608E700EE01ED012030EC00A8
:1013A0008230EB00F6200318D729031D322B831659
:1013B000AB01AA012030A9008230A800831259088D
:1013C0008316AF00831258088316AE0083125708A5
:1013D0008316AD00831256088316AC008A1183125F
:1013E000D4238A157A08E1007908E0007808DF0044
:1013F0007708DE0061088316AB008312600883164D
:10140000AA0083125F088316A90083125E08831660
:10141000A800AF01AE012030AD008230AC008A11CF
:1014200083125D238A157A08EC007908EB007808AE
:10143000EA007708E90035217808E2006208ED004B
:101440000A30EE008A118A218A157708E2006208C4
:10145000043C0318AD2AE8016208E7008A11FA216A
:101460008A157A08EA007908E9007808E800770820
:10147000E7007A088316AB00831279088316AA0066
:10148000831278088316A900831277088316A800B0
:10149000AF01AE012030AD008230AC008A11831262
:1014A000D4238A157A08E6007908E5007808E40074
:1014B0007708E300831061088316AB00831260088D
:1014C0008316AA0083125F088316A90083125E08A0
:1014D0008316A800831266088316AF00831265087E
:1014E0008316AE00831264088316AD00831263086E
:1014F0008316AC008A11831217228A157A08E1003C
:101500007908E0007808DF007708DE006108EC0069
:101510006008EB005F08EA005E08E9003521780802
:10152000DD00573003178D0000308F0003100830A6
:101530000313E7008A1134218A155D08E70018308B
:10154000E8008A119F218A150D300C1EA52A9900EA
:101550000A300C1EA92A9900322B6208043C031C95
:10156000322BE8016208E7008A11FA218A157A080D
:10157000EA007908E9007808E8007708E7007A08C7
:101580008316AB00831279088316AA0083127808A9
:101590008316A900831277088316A800AF01AE0155
:1015A0002030AD008230AC008A118312D4238A151A
:1015B0007A08E6007908E5007808E4007708E30097
:1015C000831461088316AB00831260088316AA0097
:1015D00083125F088316A90083125E088316A80091
:1015E000831266088316AF00831265088316AE0067
:1015F000831264088316AD00831263088316AC005F
:101600008A11831217228A157A08E1007908E0000E
:101610007808DF007708DE006108EC006008EB0066
:101620005F08EA005E08E90035217808DD005E30D9
:1016300003178D0000308F00031008300313E700FC
:101640008A1134218A155D08E7001830E8008A11F4
:101650009F218A150D300C1E2B2B99000A300C1E71
:101660002F2B99008A150A12892DF83083168500D0
:101670008312851D4B2BC501C4012030C30083306C
:10168000C200C901C8012030C7008330C600DA019A
:10169000DB01DC015B2B4D08C5004C08C4004B0886
:1016A000C3004A08C2005108C9005008C8004F08CA
:1016B000C7004E08C60008000C1C632BAD0A0319B6
:1016C000AE0A0C10722B0F08FA000E08F7000F0874
:1016D0007A02031D632B77080C1C7B2BAD0A0319C0
:1016E000AE0A0C100F08FA000E08F7000F087A0275
:1016F000031D722B7708F7007A08F8002D08F9000F
:101700002E08FA0008005C237A08F2007908F1003C
:101710007808F0007708EF002F08EF023008031C6C
:10172000300FF0023108031C310FF1023208031CA4
:10173000320FF202F208031DAF2B7108003C0318B0
:10174000C02BFF3A031DAF2B7008E73C0318C02BDA
:10175000FF3A031DAF2B6F08473C0318C02B5C23D7
:101760007A08B2007908B1007808B0007708AF00B5
:101770000130B3070318B40A0319B50A0319B60AEE
:10178000B308031DCC2BB408031DCC2BB508031DD7
:10179000CC2BB6080319EE2BB608031DEE2BB508AB
:1017A000031DEE2B34086C02031CEE2B031DDC2BF7
:1017B00033086B02031CEE2B520BED2B530BE12B6A
:1017C000DA0A540BE42BDB0A550BE72BDC0ADF307B
:1017D0008316870083128716D2011F2CB608031DBB
:1017E000FE2BB508031DFE2B6C083402031C1F2CB6
:1017F000031DFE2B33086B0203181F2C6D086B07AB
:10180000F8006C08FA006E0803186E0FFA077808E3
:10181000B608031D1F2CB508031D1F2C34087A02BF
:10182000031C1F2C031D182C33087802031C1F2CCB
:10183000DF3083168700831287120130D2006D08D3
:101840006B07F8006C08FA006E0803186E0FFA07B1
:101850007808B608031D392CB508031D392C7A0801
:101860003402031C3D2C031D392C78083302031C61
:101870003D2CB601B501B401B3010800F830831660
:101880008500831205148316850083128514831640
:1018900085008312051535234508EC004408EB004C
:1018A0004308EA004208E90035217908E800780891
:1018B000E7004908EC004808EB004708EA00460842
:1018C000E90035217908EA007808E9006808EC00A9
:1018D0006708EB007908EE007808ED008323061A0C
:1018E000732C0130D300861A772C0130D400061BEC
:1018F0007B2C0130D5005C237A08EA007908E900E6
:101900007808E8007708E700EA08031D972C6908C3
:10191000BE3C031C972C031D4B2C6808BC3C031CCD
:10192000972C031D4B2C67081F3C03184B2CDF30F2
:101930008316870083128712F8308316850083127E
:101940000510831685008312851083168500831287
:101950000511530BB02CF830831685008312051443
:10196000540BB72CF8308316850083128514550B61
:10197000BE2CF8308316850083120515B601B5011B
:10198000B401B301B201B101B001AF018A150A126D
:101990008A2D5A085D020318D32CD301F830831620
:1019A0008500831205105B085D020318DD2CD4014D
:1019B000F83083168500831285105C085D020318D9
:1019C000E72CD501F83083168500831205118A159E
:1019D0000A12B12DAE01AD01A53090008E018F012C
:1019E0008E010C10813083169900A630980090303B
:1019F000831298000130D200D301D401D50183169F
:101A00001F149F141F159F1107309C0083131F3054
:101A100083058312A701A8010B138B138B1B0D2DBC
:101A20008B11F8308316850083120510831685000C
:101A3000831285108316850083120511DF3083160B
:101A40008700831287128A11392D8A157A08C500FA
:101A50007908C4007808C3007708C200653003170E
:101A60008D0000308F00031009300313E7008A1146
:101A700034218A15893084004508EA004408E900C9
:101A80004308E8004208E7000230EB0000200D3078
:101A90000C1E482D99000A300C1E4C2D990045084B
:101AA000C9004408C8004308C7004208C6006C309B
:101AB00003178D0000308F00031008300313E70078
:101AC0008A1134218A15893084004908EA004808BF
:101AD000E9004708E8004608E7000230EB00002074
:101AE0000D300C1E712D99000A300C1E752D9900B9
:101AF0004508CD004408CC004308CB004208CA008A
:101B00004908D1004808D0004708CF004608CE0059
:101B100054293E2CC0308B048B154508EC0044083A
:101B2000EB004308EA004208E90035217908E800A3
:101B30007808E7004908EC004808EB004708EA008D
:101B40004608E90035217908EA007808E9006808C4
:101B5000EC006708EB007908EE007808ED008323BD
:081B6000C92C35238D2D630013
:02400E00323F3F
:00000001FF
;PIC16F876A
;CRC=9482  CREATED="25-Aðu-19 18:25"
